:020000000328D3
:100006008316031306148614071087100711871129
:10001600071287120713871383120610861006111C
:1000260086110612861206138613061C3C28861CA9
:100036003C28FF3087000B30FB002630FC005D308B
:10004600FD00FD0B2428FC0B2428FB0B24280000B4
:10005600000087010B30FB002630FC005D30FD0000
:10006600FD0B3328FC0B3328FB0B33280000000064
:100076008528061C6028861860280F3087000B30FC
:10008600FB002630FC005D30FD00FD0B4828FC0B14
:100096004828FB0B48280000000087010B30FB00B6
:1000A6002630FC005D30FD00FD0B5728FC0B572861
:1000B600FB0B572800000000852806188428861C9C
:1000C6008428F03087000B30FB002630FC005D30C2
:1000D600FD00FD0B6C28FC0B6C28FB0B6C2800004C
:1000E600000087010B30FB002630FC005D30FD0070
:1000F600FD0B7B28FC0B7B28FB0B7B2800000000FC
:080106008528870118288628CE
:02400E004A2F37
:00000001FF
