:03000000020C3FB0
:0C0C3F00787FE4F6D8FD758130020C8649
:100D3C002564002020002041444320303830382FD7
:100D4C00303830392020002020496E74657266617D
:100D5C0063696E6720202000434C41535320535449
:070D6C0052454E47544800B8
:040E5400022900145B
:060DC100D2A17F017E00BB
:100DC700E4FDFCC3ED9FEC9E5015E4FBFA0BBB0062
:0F0DD700010ABA04F8BBFBF50DBD00010C80E466
:010DE60022EA
:080E4400D2A0120DC1C2A122CF
:100E1E00A907E954F0F590120E44E9C454F0F59088
:030E2E00020E446D
:080E4C00C2A0120DC1C2A122D7
:100E3100A907E954F0F590120E4CE9C454F0F5906D
:030E4100020E4C52
:100DE7008B2E8A2F8930AB2EAA2FA930120B5CFFCE
:100DF7006010120E1E74012530F530E4352FF52FE3
:030E070080E42262
:100E0A007F02120E317F28120E317F0E120E317FB1
:040E1A0001020E3192
:100D7300750BFF750C0D750D3C85220E7B007A00FB
:100D8300792312085C7B007A007923120DE77BFF3D
:070D93007A0D793F020DE724
:100CCB00E4F52BF52CF52D75A0FFD2A5C2A3C2A47C
:100CDB00C2A2120E0A7BFF7A0D7942120DE77FC07A
:100CEB00120E317BFF7A0D7953120DE77FC87E0010
:100CFB00120DC77F01120E317F80120E317BFF7AEE
:100D0B000D7964120DE77FC0120E31AE29AF2A7C2C
:100D1B00007D0A120B75EF2430FF120E1EAE29AFA9
:100D2B002A7C007D0A120B75ED2430FF120E1E80FB
:010D3B00BBFC
:100C4B00020CCBE493A3F8E493A34003F68001F2E8
:100C5B0008DFF48029E493A3F85407240CC8C333AA
:100C6B00C4540F4420C8834004F456800146F6DF79
:100C7B00E4800B0102040810204080900E54E47EA7
:100C8B00019360BCA3FF543F30E509541FFEE4936E
:100C9B00A360010ECF54C025E060A840B8E493A335
:100CAB00FAE493A3F8E493A3C8C582C8CAC583CA60
:100CBB00F0A3C8C582C8CAC583CADFE9DEE780BE18
:010E58000099
:100B5C00BB010689828A83E0225002E722BBFE0297
:090B6C00E32289828A83E49322CA
:100B7500BC000BBE0029EF8DF084FFADF022E4CC64
:100B8500F875F008EF2FFFEE33FEEC33FCEE9DEC2D
:100B9500984005FCEE9DFE0FD5F0E9E4CEFD22ED73
:100BA500F8F5F0EE8420D21CFEADF075F008EF2FBD
:100BB500FFED33FD4007985006D5F0F222C398FDAE
:050BC5000FD5F0EA224B
:10080000E517240BF8E60517227808300702780B65
:10081000E475F001120C09020B5C2000EB7F2ED274
:10082000008018EF540F2490D43440D4FF30040BD0
:10083000EF24BFB41A0050032461FFE518600215CD
:1008400018051BE51B7002051A30070D7808E475C2
:10085000F001120C09EF020BF7020D9A7403D20794
:100860008003E4C207F5178B088A09890AE4F518A2
:10087000F51AF51BE51860077F2012083B80F57517
:1008800019FFC201C200C202C203C205C206C208E9
:10089000120809FF700D3007057F0012084CAF1BCE
:1008A000AE1A22B4255FC2D5C204120809FF24D0B3
:1008B000B40A00501A75F00A781830D50508B6FF4A
:1008C0000106C6A426F620D5047002D20380D924DE
:1008D000CFB41A00EF5004C2E5D204020A4CD20190
:1008E00080C6D20080C0D20280BCD2D580BAD205E8
:1008F00080B47F2012083B2002077401B518004025
:10090000F1120800FF12083B020874D208D20680D8
:1009100095120800FB120800FA120800F94A4B7001
:1009200006791D7A0B7BFF20022EE518602A7E00D7
:100930008E82758300120BCA60060EEE651970F088
:10094000C2D5EBC0E0EAC0E0E9C0E0EE120A93D005
:10095000E0F9D0E0FAD0E0FB120B5CFF60AAEBC03C
:10096000E0EAC0E0E9C0E012083BD0E02401F9D0A1
:10097000E03400FAD0E0FBE5190460DCD519D98039
:10098000877BFF7A0A798FD202809C791080027966
:1009900008C206C2088008D2D5790A8004790AC242
:1009A000D5E519047002F519E4FAFDFEFF120800FE
:1009B000FC7B08200113120800FD7B1030000A1296
:1009C0000800FE120800FF7B20EC3382D592D55040
:1009D00013C3E43000069FFFE49EFEE42001039D64
:1009E000FDE49CFCE4CBF8C201EC700CCFCECDCC86
:1009F000E824F8F870F38017C3EF33FFEE33FEED11
:100A000033FDEC33FCEB33FB994002FB0FD8E9EBF1
:100A1000300105F8D0E0C448B201C0E00AEC4D4E08
:100A20004F78207B0070C2EAB5190040BCC0E012CC
:100A30000A95D0F0D0E0200104C4C0E0C4B201C0E7
:100A4000F0120824D0F0D5F0EB020874120C19094A
:100A50001153098B5808E24C08DE42098F4F099761
:0F0A60004409974908F743099D550981460981C3
:100A6F00450981470B3D5008E62D08EA2E090D2B4D
:100A7F0008EE23090B200B262A08A64800000905BB
:100A8F003F3F3F00790AA2D5200314300509B91062
:100A9F00020404B9080104A2D52006025001042063
:100AAF0002689202B518005034C0E07F203003195D
:100ABF007F30A20272067205500F120AECC202C2F8
:100ACF0006C205C2087F30800F300503E9C0E0126F
:100ADF00083B300503D0E0F9D0E0B518CC3005174E
:100AEF007F30B9100C12083B7F583004077F788095
:100AFF0003B9080312083B3002057F2D02083B7F24
:100B0F00202008F87F2B2006F322920280CF286E38
:100B1F00756C6C2900D2011208003001F8C20178FF
:100B2F001830D50108F60208A62D5043495812086F
:100B3F00002403B405004001E4900B389312082CF5
:0D0B4F00743A12082CD20375180402098BA9
:100BCA00BB010CE58229F582E5833AF583E02250E0
:100BDA0006E92582F8E622BBFE06E92582F8E2222A
:0D0BEA00E58229F582E5833AF583E4932244
:100BF700BB010689828A83F0225002F722BBFE01DD
:020C0700F322D6
:100C0900FAE6FB0808E6F925F0F618E6CA3AF622EC
:100C1900D083D082F8E4937012740193700DA3A36A
:100C290093F8740193F5828883E47374029368607E
:060C3900EFA3A3A380DF7E
:100D9A00EFB40A07740D120DA5740A309811A899B8
:100DAA00B8130CC2983098FDA899C298B811F630B9
:070DBA0099FDC299F5992291
:00000001FF
