:03000000020C7A75
:0C0C7A00787FE4F6D8FD758138020CC1CB
:100D06002564002020002041444320303830382F0D
:100D1600303830392020002020496E7465726661B3
:0E0D260063696E672020200020566F6C7400F9
:070E1500010800021B00149C
:060D8400D2A17F017E00F8
:100D8A00E4FDFCC3ED9FEC9E5015E4FBFA0BBB009F
:0F0D9A00010ABA04F8BBFBF50DBD00010C80E4A3
:010DA9002227
:080E0500D2A0120D84C2A1224B
:100DDF00A907E954F0F590120E05E9C454F0F59007
:030DEF00020E05EC
:080E0D00C2A0120D84C2A12253
:100DF200A907E954F0F590120E0DE9C454F0F590EC
:030E0200020E0DD0
:060D34007B007A00790942
:100D3A008B258A268927AB25AA26A927120BECFF21
:100D4A006010120DDF74012527F527E43526F526F4
:030D5A0080E42210
:100DCB007F02120DF27F28120DF27F0E120DF27FB1
:040DDB0001020DF212
:100DAA007528FF75290D752A0685082B7B007A00A0
:100DBA00790912085C120D347BFF7A0D7909020D4C
:010DCA003AEE
:100B5C00E4F522F523F52475B0FFD2A5C2A3C2A4F7
:100B6C00C2A2120DCB7BFF7A0D790C120D3A7FC00D
:100B7C00120DF27BFF7A0D791D120D3AC292C291C1
:100B8C00C2907F0A7E00120D8AD2A3120D8AD2A2C5
:100B9C00120D8AC2A3C2A220A5FD30A5FDD2A47F4E
:100BAC000A7E00120D8A85B008120D8AC2A47FC875
:100BBC00120D8A7F01120DF27F80120DF27528FF43
:100BCC0075290D752A0685082B7B007A0079091288
:100BDC00085C120D347BFF7A0D792E120D3A809C35
:100C8600020B5CE493A3F8E493A34003F68001F21D
:100C960008DFF48029E493A3F85407240CC8C3336F
:100CA600C4540F4420C8834004F456800146F6DF3E
:100CB600E4800B0102040810204080900E15E47EAB
:100CC600019360BCA3FF543F30E509541FFEE49333
:100CD600A360010ECF54C025E060A840B8E493A3FA
:100CE600FAE493A3F8E493A3C8C582C8CAC583CA25
:100CF600F0A3C8C582C8CAC583CADFE9DEE780BEDD
:010E1C0000D5
:100BEC00BB010689828A83E0225002E722BBFE0207
:090BFC00E32289828A83E493223A
:10080000E5342428F8E605342278253007027828D4
:10081000E475F001120C44020BEC2000EB7F2ED2A9
:10082000008018EF540F2490D43440D4FF30040BD0
:10083000EF24BFB41A0050032461FFE535600215B0
:10084000350538E5387002053730070D7825E47531
:10085000F001120C44EF020C32020D5D7403D2075A
:100860008003E4C207F5348B258A268927E4F53511
:10087000F537F538E53560077F2012083B80F575C0
:1008800036FFC201C200C202C203C205C206C208CC
:10089000120809FF700D3007057F0012084CAF38B1
:1008A000AE3722B4255FC2D5C204120809FF24D096
:1008B000B40A00501A75F00A783530D50508B6FF2D
:1008C0000106C6A426F620D5047002D20380D924DE
:1008D000CFB41A00EF5004C2E5D204020A4CD20190
:1008E00080C6D20080C0D20280BCD2D580BAD205E8
:1008F00080B47F2012083B2002077401B535004008
:10090000F1120800FF12083B020874D208D20680D8
:1009100095120800FB120800FA120800F94A4B7001
:1009200006791D7A0B7BFF20022EE535602A7E00BA
:100930008E82758300120C0560060EEE653670F02F
:10094000C2D5EBC0E0EAC0E0E9C0E0EE120A93D005
:10095000E0F9D0E0FAD0E0FB120BECFF60AAEBC0AC
:10096000E0EAC0E0E9C0E012083BD0E02401F9D0A1
:10097000E03400FAD0E0FBE5360460DCD536D980FF
:10098000877BFF7A0A798FD202809C791080027966
:1009900008C206C2088008D2D5790A8004790AC242
:1009A000D5E536047002F536E4FAFDFEFF120800C4
:1009B000FC7B08200113120800FD7B1030000A1296
:1009C0000800FE120800FF7B20EC3382D592D55040
:1009D00013C3E43000069FFFE49EFEE42001039D64
:1009E000FDE49CFCE4CBF8C201EC700CCFCECDCC86
:1009F000E824F8F870F38017C3EF33FFEE33FEED11
:100A000033FDEC33FCEB33FB994002FB0FD8E9EBF1
:100A1000300105F8D0E0C448B201C0E00AEC4D4E08
:100A20004F78207B0070C2EAB5360040BCC0E012AF
:100A30000A95D0F0D0E0200104C4C0E0C4B201C0E7
:100A4000F0120824D0F0D5F0EB020874120C54090F
:100A50001153098B5808E24C08DE42098F4F099761
:0F0A60004409974908F743099D550981460981C3
:100A6F00450981470B3D5008E62D08EA2E090D2B4D
:100A7F0008EE23090B200B262A08A64800000905BB
:100A8F003F3F3F00790AA2D5200314300509B91062
:100A9F00020404B9080104A2D52006025001042063
:100AAF0002689202B535005034C0E07F2030031940
:100ABF007F30A20272067205500F120AECC202C2F8
:100ACF0006C205C2087F30800F300503E9C0E0126F
:100ADF00083B300503D0E0F9D0E0B535CC30051731
:100AEF007F30B9100C12083B7F583004077F788095
:100AFF0003B9080312083B3002057F2D02083B7F24
:100B0F00202008F87F2B2006F322920280CF286E38
:100B1F00756C6C2900D2011208003001F8C20178FF
:100B2F003530D50108F60208A62D50434958120852
:100B3F00002403B405004001E4900B389312082CF5
:0D0B4F00743A12082CD20375350402098B8C
:100C0500BB010CE58229F582E5833AF583E02250A4
:100C150006E92582F8E622BBFE06E92582F8E222EE
:0D0C2500E58229F582E5833AF583E4932208
:100C3200BB010689828A83F0225002F722BBFE01A1
:020C4200F3229B
:100C4400FAE6FB0808E6F925F0F618E6CA3AF622B1
:100C5400D083D082F8E4937012740193700DA3A32F
:100C640093F8740193F5828883E473740293686043
:060C7400EFA3A3A380DF43
:100D5D00EFB40A07740D120D68740A309811A89932
:100D6D00B8130CC2983098FDA899C298B811F630F6
:070D7D0099FDC299F59922CE
:00000001FF
