:03000000020C7D72
:0C0C7D00787FE4F6D8FD75812A020CC4D3
:100D09002564002020002041444320303830382F0A
:100D1900303830392020002020496E7465726661B0
:100D290063696E6720202000253033640020566FE8
:030D39006C7400D7
:040E1D000229001492
:060D8C00D2A17F017E00F0
:100D9200E4FDFCC3ED9FEC9E5015E4FBFA0BBB0097
:0F0DA200010ABA04F8BBFBF50DBD00010C80E49B
:010DB100221F
:080E0D00D2A0120D8CC2A1223B
:100DE700A907E954F0F590120E0DE9C454F0F590F7
:030DF700020E0DDC
:080E1500C2A0120D8CC2A12243
:100DFA00A907E954F0F590120E15E9C454F0F590DC
:030E0A00020E15C0
:060D3C007B007A00792320
:100D42008B0B8A0C890DAB0BAA0CA90D120BEFFFB2
:100D52006010120DE77401250DF50DE4350CF50C4C
:030D620080E42208
:100DD3007F02120DFA7F28120DFA7F0E120DFA7F91
:040DE30001020DFA02
:100DB200750EFF750F0D7510098522117B007A00E3
:100DC200792312085C120D3C7BFF7A0D790C020D1F
:010DD20042DE
:100B5C00E4F508F509F50A75B0FFD2A5C2A3C2A445
:100B6C00C2A2120DD37BFF7A0D790F120D427FC0FA
:100B7C00120DFA7BFF7A0D7920120D42C292C291AE
:100B8C00C2907F0A7E00120D92D2A3120D92D2A2B5
:100B9C00120D92C2A3C2A220A5FD30A5FDD2A47F46
:100BAC000A7E00120D9285B022852280120D92C20F
:100BBC00A47FC8120D927F01120DFA7F80120DFADC
:100BCC00750EFF750F0D7510318522117B007A00A3
:100BDC00792312085C120D3C7BFF7A0D7936120DCD
:030BEC00428099AB
:100C8900020B5CE493A3F8E493A34003F68001F21A
:100C990008DFF48029E493A3F85407240CC8C3336C
:100CA900C4540F4420C8834004F456800146F6DF3B
:100CB900E4800B0102040810204080900E1DE47EA0
:100CC900019360BCA3FF543F30E509541FFEE49330
:100CD900A360010ECF54C025E060A840B8E493A3F7
:100CE900FAE493A3F8E493A3C8C582C8CAC583CA22
:100CF900F0A3C8C582C8CAC583CADFE9DEE780BEDA
:010E210000D0
:100BEF00BB010689828A83E0225002E722BBFE0204
:090BFF00E32289828A83E4932237
:10080000E51A240EF8E6051A22780B300702780E56
:10081000E475F001120C47020BEF2000EB7F2ED2A3
:10082000008018EF540F2490D43440D4FF30040BD0
:10083000EF24BFB41A0050032461FFE51B600215CA
:100840001B051EE51E7002051D30070D780BE475B3
:10085000F001120C47EF020C35020D657403D2074C
:100860008003E4C207F51A8B0B8A0C890DE4F51B93
:10087000F51DF51EE51B60077F2012083B80F5750E
:100880001CFFC201C200C202C203C205C206C208E6
:10089000120809FF700D3007057F0012084CAF1ECB
:1008A000AE1D22B4255FC2D5C204120809FF24D0B0
:1008B000B40A00501A75F00A781B30D50508B6FF47
:1008C0000106C6A426F620D5047002D20380D924DE
:1008D000CFB41A00EF5004C2E5D204020A4CD20190
:1008E00080C6D20080C0D20280BCD2D580BAD205E8
:1008F00080B47F2012083B2002077401B51B004022
:10090000F1120800FF12083B020874D208D20680D8
:1009100095120800FB120800FA120800F94A4B7001
:1009200006791D7A0B7BFF20022EE51B602A7E00D4
:100930008E82758300120C0860060EEE651C70F046
:10094000C2D5EBC0E0EAC0E0E9C0E0EE120A93D005
:10095000E0F9D0E0FAD0E0FB120BEFFF60AAEBC0A9
:10096000E0EAC0E0E9C0E012083BD0E02401F9D0A1
:10097000E03400FAD0E0FBE51C0460DCD51CD98033
:10098000877BFF7A0A798FD202809C791080027966
:1009900008C206C2088008D2D5790A8004790AC242
:1009A000D5E51C047002F51CE4FAFDFEFF120800F8
:1009B000FC7B08200113120800FD7B1030000A1296
:1009C0000800FE120800FF7B20EC3382D592D55040
:1009D00013C3E43000069FFFE49EFEE42001039D64
:1009E000FDE49CFCE4CBF8C201EC700CCFCECDCC86
:1009F000E824F8F870F38017C3EF33FFEE33FEED11
:100A000033FDEC33FCEB33FB994002FB0FD8E9EBF1
:100A1000300105F8D0E0C448B201C0E00AEC4D4E08
:100A20004F78207B0070C2EAB51C0040BCC0E012C9
:100A30000A95D0F0D0E0200104C4C0E0C4B201C0E7
:100A4000F0120824D0F0D5F0EB020874120C57090C
:100A50001153098B5808E24C08DE42098F4F099761
:0F0A60004409974908F743099D550981460981C3
:100A6F00450981470B3D5008E62D08EA2E090D2B4D
:100A7F0008EE23090B200B262A08A64800000905BB
:100A8F003F3F3F00790AA2D5200314300509B91062
:100A9F00020404B9080104A2D52006025001042063
:100AAF0002689202B51B005034C0E07F203003195A
:100ABF007F30A20272067205500F120AECC202C2F8
:100ACF0006C205C2087F30800F300503E9C0E0126F
:100ADF00083B300503D0E0F9D0E0B51BCC3005174B
:100AEF007F30B9100C12083B7F583004077F788095
:100AFF0003B9080312083B3002057F2D02083B7F24
:100B0F00202008F87F2B2006F322920280CF286E38
:100B1F00756C6C2900D2011208003001F8C20178FF
:100B2F001B30D50108F60208A62D5043495812086C
:100B3F00002403B405004001E4900B389312082CF5
:0D0B4F00743A12082CD203751B0402098BA6
:100C0800BB010CE58229F582E5833AF583E02250A1
:100C180006E92582F8E622BBFE06E92582F8E222EB
:0D0C2800E58229F582E5833AF583E4932205
:100C3500BB010689828A83F0225002F722BBFE019E
:020C4500F32298
:100C4700FAE6FB0808E6F925F0F618E6CA3AF622AE
:100C5700D083D082F8E4937012740193700DA3A32C
:100C670093F8740193F5828883E473740293686040
:060C7700EFA3A3A380DF40
:100D6500EFB40A07740D120D70740A309811A89922
:100D7500B8130CC2983098FDA899C298B811F630EE
:070D850099FDC299F59922C6
:00000001FF
